:100000005CC0000081C000007FC000007DC0000017
:100010007BC0000079C0000077C0000075C0000000
:1000200073C0000071C000006FC000006DC0000010
:100030006BC0000069C0000067C0000065C0000020
:10004000CCC4000061C000000C94510C0C947D0CD9
:100050005BC0000059C0000057C0000055C0000040
:1000600053C0000051C00000000000002400270021
:100070002A0000000000250028002B0004040404CE
:100080000404040402020202020203030303030342
:10009000010204081020408001020408102001021F
:1000A00004081020000000080002010000030407FB
:1000B0000000000000000000E40C11241FBECFEF80
:1000C000D8E0DEBFCDBF11E0A0E0B1E0EEEEFAE196
:1000D00002C005900D92A633B107D9F721E0A6E33F
:1000E000B1E001C01D92A43FB207E1F710E0CDE5F9
:1000F000D0E004C02197FE010E94640DCC35D107E9
:10010000C9F736D20C94750D7BCFCF93DF9300D017
:10011000CDB7DEB789836A838A81882321F460E0C2
:100120008981BAD50AC08A81813021F461E0898150
:10013000B3D503C062E08981AFD500000F900F9066
:10014000DF91CF910895CF93DF9300D0CDB7DEB785
:1001500089836A838A81882321F061E08981C6D6F8
:1001600003C060E08981C2D600000F900F90DF913C
:10017000CF910895CF93DF93CDB7DEB728970FB611
:10018000F894DEBF0FBECDBF6D837E838F839887CB
:100190008D819E81AF81B885BF7720E030E040E857
:1001A00059E5BC01CD01BAD288230CF04FC020E044
:1001B00030E040E05FE36D817E818F819885A6D33A
:1001C0008823ACF020E030E040E05FE36D817E8189
:1001D0008F8198852CD2DC01CB01BC01CD01CED220
:1001E000DC01CB0189839A83AB83BC8337C020E0D9
:1001F00030E040E05FEB6D817E818F81988586D312
:1002000018167CF420E030E0A9016D817E818F8199
:10021000988580D3DC01CB0189839A83AB83BC832F
:100220001DC020E030E040E05FE36D817E818F8182
:100230009885FCD1DC01CB01BC01CD015CD2DC0195
:10024000CB0189839A83AB83BC8308C08D819E8157
:10025000AF81B88589839A83AB83BC8389819A8176
:10026000AB81BC81BC01CD0128960FB6F894DEBFEE
:100270000FBECDBFDF91CF910895CF93DF9300D014
:1002800000D01F92CDB7DEB780910001909101019F
:10029000A0910201B0910301BC01CD016BDFDC0133
:1002A000CB018A839B83AC83BD8320E030E040E8B0
:1002B00053E46A817B818C819D8130D28823ACF4A8
:1002C00020E030E0A9016A817B818C819D811ED371
:1002D00088234CF06A817B818C819D8123D2DC0153
:1002E000CB01898304C0198202C08FEF89836981A1
:1002F00089E029DF00000F900F900F900F900F9072
:10030000DF91CF910895CF93DF93CDB7DEB786E32A
:1003100091E0FC011182108249E050E060E070E061
:1003200089EE91E00E946E0D1092E90181E08093C8
:10033000F10181E090E0A0E0B0E08093EA019093C9
:10034000EB01A093EC01B093ED0161E089E0DDDE0B
:1003500081E08093EE010000DF91CF910895CF936B
:10036000DF93CDB7DEB78091E901882319F481E0EE
:100370008093E9010000DF91CF910895CF93DF933F
:10038000CDB7DEB740E855E260E070E080E090E095
:1003900026D00000DF91CF910895CF93DF9300D056
:1003A00000D000D0CDB7DEB79A8389834B835C83BE
:1003B0006D837E838B819C81AD81BE81E981FA81D1
:1003C00026E0AC01BD01CF019FD6000026960FB6F6
:1003D000F894DEBF0FBECDBFDF91CF910895CF93CC
:1003E000DF9300D000D000D0CDB7DEB79A838983E9
:1003F0004B835C836D837E838B819C81AD81BE81C9
:10040000AC01BD018CE491E0C8DF000026960FB678
:10041000F894DEBF0FBECDBFDF91CF910895CF938B
:10042000DF93CDB7DEB70000DF91CF910895EF9253
:10043000FF920F931F93CF93DF9300D000D01F92B2
:10044000CDB7DEB719823AD3DC01CB0180933C01F2
:1004500090933D01A0933E01B0933F0120913C0158
:1004600030913D0140913E0150913F018091380112
:1004700090913901A0913A01B0913B0179018A0133
:10048000E81AF90A0A0B1B0BD801C70180349D40FA
:10049000A340B10508F43CC080913C0190913D011E
:1004A000A0913E01B0913F018093380190933901B2
:1004B000A0933A01B0933B013AD000D3DC01CB01C9
:1004C0008A839B83AC83BD838091380190913901ED
:1004D000A0913A01B0913B012A813B814C815D8121
:1004E00079018A01E81AF90A0A0B1B0BD801C70126
:1004F00080349D40A340B10538F081E090E09093B6
:1005000041018093400104C01092410110924001CA
:1005100081E0898389810F900F900F900F900F9049
:10052000DF91CF911F910F91FF90EF900895CF939E
:10053000DF93CDB7DEB78091420191E0980F9093A1
:100540004201882361F081E090E090934101809323
:1005500040018091420181508093420106C08DDEAE
:1005600080914201815080934201DF91CF910895A3
:10057000CF93DF93CDB7DEB728970FB6F894DEBFE1
:100580000FBECDBF8DEC9CECACE4BEE389839A83B7
:10059000AB83BC831D821E821F8218861092F301DA
:1005A0001092F201EAD2EADE8091040190910501F5
:1005B000FC0111821082A7DEF89431DF80910401E2
:1005C00090910501FC018081918121E0892B09F046
:1005D00020E0822F8093F201789417C0809104016B
:1005E00090910501FC018081918121E0892B09F422
:1005F00020E0822F8093F3019091F30181E0992311
:1006000009F080E08093F20112DF8091F2018823EB
:1006100029F7A5DEF89480E090E028960FB6F894CC
:10062000DEBF0FBECDBFDF91CF9108955058BB27DD
:10063000AA270ED01AC10BD130F010D120F031F41E
:100640009F3F11F41EF400C10EF4E095E7FBCDC00E
:10065000E92F1CD180F3BA17620773078407950747
:1006600018F071F49EF54BC10EF4E0950B2EBA2FE5
:10067000A02D0B01B90190010C01CA01A0011124A8
:10068000FF27591B99F0593F50F4503E68F11A1654
:10069000F040A22F232F342F4427585FF3CF4695E5
:1006A00037952795A795F0405395C9F77EF41F1607
:1006B000BA0B620B730B840BBAF09150A1F0FF0FD1
:1006C000BB1F661F771F881FC2F70EC0BA0F621FBD
:1006D000731F841F48F4879577956795B795F795AD
:1006E0009E3F08F0B3CF9395880F08F09927EE0F3F
:1006F000979587950895ECD080F09F3740F491113D
:100700000EF4FEC060E070E080E89FE3089526F0FC
:100710001B16611D711D811D6EC088C042D008F47A
:1007200081E00895BBD088F09F5790F0B92F9927AA
:10073000B751A0F0D1F0660F771F881F991F1AF0EC
:10074000BA95C9F712C0B13081F0D9D0B1E008959F
:10075000D6C0672F782F8827B85F39F0B93FCCF320
:10076000869577956795B395D9F73EF490958095E2
:10077000709561957F4F8F4F9F4F0895A9D080F05E
:100780009F3740F491110EF0BBC060E070E080E84C
:100790009FEB089526F41B16611D711D811D2BC052
:1007A00045C0990F0008550FAA0BE0E8FEEF16169A
:1007B0001706E807F907C0F012161306E407F50755
:1007C00098F0621B730B840B950B39F40A2661F0C9
:1007D000232B242B252B21F408950A2609F4A1406C
:1007E000A6958FEF811D811D089597F99F6780E879
:1007F00070E060E00895882371F4772321F0985029
:10080000872B762F07C0662311F499270DC09051CE
:10081000862B70E060E02AF09A95660F771F881F9C
:10082000DAF7880F9695879597F908959F3F31F0ED
:10083000915020F4879577956795B795880F911D0E
:100840009695879597F908959FEF80EC0895002479
:100850000A941616170618060906089500240A9425
:1008600012161306140605060895092E0394000CAB
:1008700011F4882352F0BB0F40F4BF2B11F460FF3A
:1008800004C06F5F7F4F8F4F9F4F089557FD905863
:10089000440F551F59F05F3F71F04795880F97FB44
:1008A000991F61F09F3F79F08795089512161306FE
:1008B0001406551FF2CF4695F1DF08C0161617062D
:1008C0001806991FF1CF8695710561050894089562
:1008D000E5DFA0F0BEE7B91788F4BB279F3860F4C6
:1008E0001616B11D672F782F8827985FF7CF86954A
:1008F00077956795B11D93959639C8F30895E89457
:10090000BB2766277727CB0197F908954ADF08F4BC
:100910008FEF08950BD0A9CF9ADF28F09FDF18F052
:10092000952309F062CF90CF1124EACFAFDFA0F377
:10093000959FD1F3950F50E0551F629FF001729F74
:10094000BB27F00DB11D639FAA27F00DB11DAA1F93
:10095000649F6627B00DA11D661F829F2227B00DE0
:10096000A11D621F739FB00DA11D621F839FA00D6B
:10097000611D221F749F3327A00D611D231F849FBB
:10098000600D211D822F762F6A2F11249F57504012
:100990008AF0E1F088234AF0EE0FFF1FBB1F661FAD
:1009A000771F881F91505040A9F79E3F510570F066
:1009B0001CCFA6CF5F3FECF3983EDCF3869577958E
:1009C0006795B795F795E7959F5FC1F7FE2B880F61
:1009D000911D9695879597F908951F920F920FB6DE
:1009E0000F9211248F939F93AF93BF93CF93DF9375
:1009F000CDB7DEB72597DEBFCDBF8091470190917F
:100A00004801A0914901B0914A0189839A83AB833F
:100A1000BC8380914B018D8389819A81AB81BC819C
:100A20000196A11DB11D89839A83AB83BC838D81FF
:100A30008D5F8D838D818D3770F08D818D578D8386
:100A400089819A81AB81BC810196A11DB11D8983E9
:100A50009A83AB83BC838D8180934B0189819A817A
:100A6000AB81BC818093470190934801A0934901D9
:100A7000B0934A018091430190914401A0914501B6
:100A8000B09146010196A11DB11D80934301909341
:100A90004401A0934501B093460100000F900F90D0
:100AA0000F900F900F90DF91CF91BF91AF919F91D9
:100AB0008F910F900FBE0F901F901895CF93DF93DB
:100AC00000D000D000D0CDB7DEB78FE590E0FC01BC
:100AD00080818D83F8948091430190914401A0918D
:100AE0004501B091460189839A83AB83BC8386E438
:100AF00090E0FC0180818E8385E390E0FC018081A1
:100B0000882F90E081709927892B71F08E818F3F1B
:100B100059F089819A81AB81BC810196A11DB11DDB
:100B200089839A83AB83BC838FE590E02D81FC01A0
:100B3000208389819A81AB81BC812227382F492F5C
:100B40005A2F8E81882F90E0A0E0B0E0820F931F93
:100B5000A41FB51F880F991FAA1FBB1F880F991FBD
:100B6000AA1FBB1FBC01CD0126960FB6F894DEBFAD
:100B70000FBECDBFDF91CF910895CF93DF93CDB757
:100B8000DEB7789484E490E0FC01208184E490E076
:100B90002260FC01208384E490E0FC01208184E455
:100BA00090E02160FC01208385E490E0FC0120813D
:100BB00085E490E02260FC01208385E490E0FC0164
:100BC000208185E490E02160FC0120838EE690E0A6
:100BD000FC0120818EE690E02160FC01208381E809
:100BE00090E0FC01108281E890E0FC01208181E826
:100BF00090E02260FC01208381E890E0FC012081EC
:100C000081E890E02160FC01208380E890E0FC0115
:100C1000208180E890E02160FC01208381EB90E05E
:100C2000FC01208181EB90E02460FC01208380EBBB
:100C300090E0FC01208180EB90E02160FC012083AA
:100C40008AE790E0FC0120818AE790E02460FC01C3
:100C500020838AE790E0FC0120818AE790E022600F
:100C6000FC0120838AE790E0FC0120818AE790E084
:100C70002160FC0120838AE790E0FC0120818AE763
:100C800090E02068FC01208381EC90E0FC01108260
:100C90000000DF91CF910895CF93DF93CDB7DEB7FA
:100CA00069970FB6F894DEBF0FBECDBF888F698FEE
:100CB000888D882F90E080579F4F9A838983898100
:100CC0009A81FC0184918B838B818C83888D882F02
:100CD00090E084589F4F9E838D838D819E81FC017F
:100CE00084918F838F8188878885882309F495C0B4
:100CF0008885882F90E0880F991F88599F4F9A8781
:100D0000898789859A85FC0125913491CF013C879B
:100D10002B879A8789878B859C859E878D87888579
:100D2000882F90E0880F991F8E589F4F988B8F8740
:100D30008F859889FC0125913491CF013A8B298BBD
:100D4000988B8F8789899A899C8B8B8B898D882337
:100D500031F58FE590E0FC0180818F8BF8948D85D3
:100D60009E85FC018081982F8C8180958923282F76
:100D70008D859E85FC0120838B899C89FC01808167
:100D8000982F8C8180958923282F8B899C89FC0141
:100D900020838FE590E02F89FC0120833FC0898D5F
:100DA000823021F58FE590E0FC0180818E8BF894F4
:100DB0008D859E85FC018081982F8C81809589236B
:100DC000282F8D859E85FC0120838B899C89FC01C1
:100DD00090818C81292F282B8B899C89FC01208371
:100DE0008FE590E02E89FC01208318C08FE590E00C
:100DF000FC0180818D8BF8948D859E85FC0190810E
:100E00008C81292F282B8D859E85FC0120838FE5E1
:100E100090E02D89FC01208301C0000069960FB687
:100E2000F894DEBF0FBECDBFDF91CF910895CF9371
:100E3000DF931F92CDB7DEB789838981882F90E039
:100E40008330910591F08430910534F4813091051F
:100E500001F1029741F145C08730910571F1883069
:100E60009105A9F1049759F03CC080E890E0FC019D
:100E7000208180E890E02F77FC01208332C080E859
:100E800090E0FC01208180E890E02F7DFC01208330
:100E900028C084E490E0FC01208184E490E02F7776
:100EA000FC0120831EC084E490E0FC01208184E4E6
:100EB00090E02F7DFC01208314C080EB90E0FC01CA
:100EC000208180EB90E02F77FC0120830AC080EB2B
:100ED00090E0FC01208180EB90E02F7DFC012083DD
:100EE000000000000F90DF91CF910895CF93DF9322
:100EF000CDB7DEB765970FB6F894DEBF0FBECDBF96
:100F00008C8B6D8B8C89882F90E08C559F4F9A83AA
:100F1000898389819A81FC0184918B838B818C8365
:100F20008C89882F90E080579F4F9E838D838D8181
:100F30009E81FC0184918F838F8188878C89882F83
:100F400090E084589F4F9A87898789859A85FC010C
:100F500084918B878B858C878C85882309F444C08A
:100F60008C81882311F08C8162DF8C85882F90E042
:100F7000880F991F8E589F4F9E878D878D859E85E0
:100F8000FC0125913491CF01388B2F879E878D8767
:100F90008F8598899A8B898B8FE590E0FC01808101
:100FA0008B8BF8948D89882371F489899A89FC0147
:100FB0008081982F888580958923282F89899A890F
:100FC000FC0120830BC089899A89FC019081888566
:100FD000292F282B89899A89FC0120838FE590E0AD
:100FE0002B89FC01208301C0000065960FB6F894A0
:100FF000DEBF0FBECDBFDF91CF910895CF93DF93BA
:10100000CDB7DEB7F89481E0DF91CF910895CF930B
:10101000DF9300D0CDB7DEB79A8389838FE590E068
:1010200029813A81F9012081FC01208300000F9081
:101030000F90DF91CF910895CF93DF9300D01F924F
:10104000CDB7DEB79B838A838A819B81FC01848D27
:10105000882F90E02A813B81820F931F835A9F4FF4
:10106000FC01808189838A819B81FC01848D882F8A
:1010700090E001968F739078992324F40197806C07
:101080009F6F0196282F8A819B81FC01248F8A8182
:101090009B81FC01868997892981FC0120838A81B3
:1010A0009B81FC0180899189FC0180818370282FBC
:1010B00020648A819B81FC0180899189FC012083C5
:1010C0008A819B81FC01238D8A819B81FC01948D07
:1010D00081E0291709F080E0882379F08A819B81DB
:1010E000FC0182899389FC0120818A819B81FC011A
:1010F000828993892F7DFC01208300000F900F903F
:101100000F90DF91CF910895CF93DF93CDB7DEB7E6
:1011100029970FB6F894DEBF0FBECDBF9C838B839B
:101120004D835E836F837887298780E099E0ADE304
:10113000B0E02D813E814F815885BC01CD01A2D404
:10114000DA01C9010197A109B109B695A79597954B
:1011500087959A8389838B819C81FC018089918901
:1011600022E0FC0120838D819E81AF81B8858115AD
:10117000914EA105B10529F089819A81811590418F
:10118000E8F08B819C81FC0180899189FC011082AF
:1011900080E894E8AEE1B0E02D813E814F81588532
:1011A000BC01CD016FD4DA01C9010197A109B109D0
:1011B000B695A795979587959A83898389819A8112
:1011C000292F33278B819C81FC0184859585FC0127
:1011D00020838B819C81FC01868597852981FC0178
:1011E00020838B819C81FC01108E8B819C81FC0172
:1011F000848995892985FC0120838B819C81FC0150
:1012000082899389FC0120818B819C81FC018289E8
:1012100093892061FC0120838B819C81FC01828960
:101220009389FC0120818B819C81FC0182899389B7
:101230002860FC0120838B819C81FC018289938939
:10124000FC0120818B819C81FC018289938920682B
:10125000FC0120838B819C81FC0182899389FC01A4
:1012600020818B819C81FC01828993892F7DFC01E7
:101270002083000029960FB6F894DEBF0FBECDBFC5
:10128000DF91CF910895CF93DF9300D0CDB7DEB734
:101290009A83898389819A81FC01818D882F90E0CE
:1012A0009C01205C3F4F89819A81FC01828D882FAF
:1012B00090E0A901481B590BCA018F7399270F9021
:1012C0000F90DF91CF910895CF93DF9300D0CDB7EA
:1012D000DEB79A83898389819A81FC01218D898176
:1012E0009A81FC01928D81E0291709F080E0882322
:1012F00019F08FEF9FEF0FC089819A81FC01828DD9
:10130000882F90E029813A81820F931F4D96FC012E
:101310008081882F90E00F900F90DF91CF910895FA
:10132000CF93DF9300D01F92CDB7DEB79B838A8324
:101330008A819B81FC01218D8A819B81FC01928D98
:1013400081E0291709F080E0882319F08FEF9FEFE3
:101350001CC08A819B81FC01828D882F90E02A81AC
:101360003B81820F931F4D96FC01808189838A8186
:101370009B81FC01828D8F5F282F2F738A819B8137
:10138000FC01228F8981882F90E00F900F900F90A1
:10139000DF91CF910895CF93DF9300D000D0CDB7E8
:1013A000DEB79C838B838B819C81FC01838D898339
:1013B0008B819C81FC01848D8A8399818A81981715
:1013C00068F08981882F90E02FE330E0281B390BEB
:1013D0008A81882F90E0820F931F0BC08A81282F6B
:1013E00030E08981882F90E0A901481B590BCA0180
:1013F00001970F900F900F900F90DF91CF9108956C
:10140000CF93DF9300D0CDB7DEB79A8389838981EC
:101410009A81FC01908D81E08927882309F04DC0D5
:1014200089819A81FC0182899389FC018081882FBE
:1014300090E080729927892B69F489819A81FC0157
:1014400080899189FC018081882F90E080749927A0
:10145000892B11F481E001C080E0882379F18FE5C8
:1014600090E0FC01808188237CF089819A81FC01D5
:1014700082899389FC018081882F90E0807299276E
:10148000892B11F081E001C080E0882349F2898135
:101490009A81FC0180899189FC018081882F90E0EC
:1014A0008072992721E0892B09F420E0222309F496
:1014B000B7CF89819A81C0DDB3CF00000F900F9024
:1014C000DF91CF910895CF93DF93CDB7DEB7289703
:1014D0000FB6F894DEBF0FBECDBF9F838E836887A3
:1014E0008E819F8121E0FC01208F8E819F81FC01F4
:1014F000238D8E819F81FC01848D281779F48E8144
:101500009F81FC0180899189FC018081882F90E076
:1015100080729927892B11F081E001C080E0882337
:1015200059F18FE590E0FC0180818C8367DD898330
:1015300089818823D9F08E819F81FC0186899789D2
:101540002885FC0120838E819F81FC0180899189FF
:10155000FC0180818370282F20648E819F81FC0193
:1015600080899189FC0120831982E2CFCE01049603
:101570004EDD81E090E06EC08E819F81FC01838D05
:10158000882F90E001968F739078992324F4019727
:10159000806C9F6F01968B838E819F81FC01948D5F
:1015A00081E02B81291709F080E08823F9F08FE58D
:1015B00090E0FC0180818095881F8827881F882300
:1015C00059F38E819F81FC0180899189FC01808182
:1015D000882F90E08072992721E0892B09F420E080
:1015E0002223D1F28E819F8127DDD6CF8E819F81EC
:1015F000FC01838D882F90E02E813F81820F931F05
:10160000835A9F4F2885FC0120838FE590E0FC01E1
:1016100080818D83F3DC8A838A818823B1F08E8177
:101620009F812B81FC01238F8E819F81FC01828908
:101630009389FC0120818E819F81FC01828993899D
:101640002062FC0120831A82E7CFCE010596DFDC01
:1016500081E090E028960FB6F894DEBF0FBECDBFB4
:10166000DF91CF910895CF93DF9300D0CDB7DEB750
:101670009A8389832EE231E089819A81FC0131834A
:10168000208389819A81FC011382128200000F90CD
:101690000F90DF91CF910895CF93DF9300D0CDB716
:1016A000DEB79A83898380E090E00F900F90DF91FE
:1016B000CF910895CF93DF9300D0CDB7DEB79A8353
:1016C000898300000F900F90DF91CF910895CF9301
:1016D000DF9300D0CDB7DEB79A83898389819A8161
:1016E000C2DF2CE131E089819A81FC0131832083C2
:1016F00029813A8188EE93E0A0E0B0E0F90184838B
:101700009583A683B78300000F900F90DF91CF9150
:101710000895CF92DF92EF92FF920F931F93CF9392
:10172000DF93CDB7DEB72E970FB6F894DEBF0FBEAE
:10173000CDBF9A8389837C836B835E834D83388797
:101740002F831A870987FC86EB86DE86CD86898102
:101750009A81BDDF2AE031E089819A81FC013183E1
:10176000208389819A812B813C81FC0135872487E4
:1017700089819A812D813E81FC0137872687898165
:101780009A812F813885FC01318B208B89819A8148
:1017900029853A85FC01338B228B89819A812B859F
:1017A0003C85FC01358B248B89819A812D853E8572
:1017B000FC01378B268B89819A81FC01118E8981EE
:1017C0009A81FC01128E89819A81FC01138E898194
:1017D0009A81FC01148E00002E960FB6F894DEBF9D
:1017E0000FBECDBFDF91CF911F910F91FF90EF9072
:1017F000DF90CF900895CF93DF9300D000D0CDB786
:10180000DEB79C838B838B819C81FC0180899189CD
:10181000FC018081882F90E08470992721E0892B3A
:1018200009F020E0222371F18B819C81FC018689E3
:101830009789FC01808189838B819C81FC01818D4A
:101840008F5F8F738A838B819C81FC01928D81E0F5
:101850002A81291709F480E08823D9F08B819C81A3
:10186000FC01818D882F90E02B813C81820F931F9A
:101870004D962981FC0120838B819C812A81FC016A
:10188000218F07C08B819C81FC0186899789FC018F
:10189000808100000F900F900F900F90DF91CF91FB
:1018A00008951F920F920FB60F9211242F933F931A
:1018B0004F935F936F937F938F939F93AF93BF9358
:1018C000EF93FF93CF93DF93CDB7DEB78CE491E036
:1018D00092DF0000DF91CF91FF91EF91BF91AF9127
:1018E0009F918F917F916F915F914F913F912F9138
:1018F0000F900FBE0F901F9018951F920F920FB66A
:101900000F9211242F933F934F935F936F937F9385
:101910008F939F93AF93BF93EF93FF93CF93DF93F7
:10192000CDB7DEB78CE491E087DB0000DF91CF918B
:10193000FF91EF91BF91AF919F918F917F916F91A7
:101940005F914F913F912F910F900FBE0F901F907D
:101950001895CF92DF92EF92FF920F931F93CF9340
:10196000DF9300D000D0CDB7DEB79A8389837C8324
:101970006B8389819A810197C9F48B819C8101963F
:10198000A9F40F2EF6ECCF2ED12CF02D0F2EF2EC69
:10199000EF2EF12CF02D01EC10E020EC30E044ECC7
:1019A00050E065EC70E08CE491E0B3DE00000F9055
:1019B0000F900F900F90DF91CF911F910F91FF909B
:1019C000EF90DF90CF900895CF93DF93CDB7DEB740
:1019D0006FEF7FEF81E090E0BCDFDF91CF91089562
:1019E000CF93DF93CDB7DEB728970FB6F894DEBF5D
:1019F0000FBECDBF9C838B837E836D8358874F83BF
:101A00001A8219828F8198859C012150310938876B
:101A10002F8321E0892B09F420E0222319F18B8107
:101A20009C81FC0180819181FC01208131818D812B
:101A30009E81AC014F5F5F4F5E834D83FC0140810F
:101A40008B819C81642FF901099521E0892B09F490
:101A500020E0222331F089819A8101969A8389833B
:101A6000D1CF000089819A8128960FB6F894DEBF05
:101A70000FBECDBFDF91CF910895CF93DF93CDB748
:101A8000DEB728D0A1E21A2EAA1BBB1BFD010DC098
:101A9000AA1FBB1FEE1FFF1FA217B307E407F5071E
:101AA00020F0A21BB30BE40BF50B661F771F881FFA
:101AB000991F1A9469F760957095809590959B0190
:101AC000AC01BD01CF010895EE0FFF1F0590F49109
:101AD000E02D099481E090E0F89407C0DC0101C09A
:0E1AE0006D9341505040E0F70895F894FFCF09
:101AEE000000803F360100000000630AF00CCB09B5
:101AFE00000A430990096409000000003D0DF00C36
:101B0E004C0B5A0B3D0D3D0D3D0D000000003D0DE3
:061B1E00F00C4C0B5A0B09
:00000001FF
