:1000000075C00000A3C00000A1C000009FC0000098
:100010009DC000009BC0000099C0000097C0000078
:1000200095C0000093C0000091C000008FC0000088
:100030008DC000008BC0000089C0000087C0000098
:1000400085C0000083C0000081C000007FC00000A8
:100050007DC000007BC0000079C000000C946E08D9
:1000600075C000000C94440A0C947A0A6FC000001A
:100070006DC000006BC0000069C0000067C00000D8
:1000800065C0000063C0000061C000005FC00000E8
:100090000C94D00A0C94060B59C0000057C0000005
:1000A00055C0000053C0000051C000004FC0000008
:1000B0004DC000004BC0000049C0000047C0000018
:1000C00045C0000043C0000090C500000C945C0BCC
:1000D0000C94920B3BC000000C94E80B0C941E0C8B
:1000E00035C00000A30A2F0BBB0B470C11241FBE09
:1000F000CFEFD1E2DEBFCDBF00E00CBF13E0A0E048
:10010000B2E0E6E0FFE100E00BBF02C007900D9215
:10011000A832B107D9F725E0A8E2B3E001C01D92EB
:10012000AD3EB207E1F710E0C6E7D0E000E006C060
:1001300021970109802FFE010E94C00EC237D1070E
:1001400080E00807A9F7B7D50C94810F59CF882311
:10015000D9F0823059F0833081F08130A9F440E841
:1001600055E260E070E081E090E022C540E855E2B1
:1001700060E070E082E090E0F8CF40E855E260E0B7
:1001800070E083E090E0F1CF08954F925F926F921C
:100190007F928F929F92AF92BF92CF92EF92FF92F7
:1001A0000F931F93CF93DF93CDB7DEB72B013A01A7
:1001B000F02EB40130E02830310511F424E030E0B5
:1001C0000AE010E0CC2061F091E000E110E0C916F7
:1001D00039F0E2E008E010E0CE1611F002E010E0A5
:1001E000813009F4E8C0B0F0823009F4C3C1833033
:1001F00009F49FC2DF91CF911F910F91FF90EF9073
:10020000CF90BF90AF909F908F907F906F905F90B6
:100210004F900895F1101BC0269DA001279D500D01
:10022000369D500D1124B20186E393E0DF91CF910A
:100230001F910F91FF90EF90CF90BF90AF909F9044
:100240008F907F906F905F904F900C94740C86E32A
:1002500093E00E94B00CE11014C0640C751C64148F
:10026000750441F2F20161912F01F1E0A80186E3EA
:1002700093E0FF1203C00E94820DF1CF0E94880D0F
:10028000EECF81E0E81215C091E0691A710808F418
:10029000B1CFF201619171912F01F1E0A80186E3E4
:1002A00093E0FF1203C00E94980DEECF0E949D0DB7
:1002B000EBCF82E0E81217C091E0691A710808F4E8
:1002C00099CFF20141915191619171912F01F1E02A
:1002D000980186E393E0FF1203C00E94760DECCFF5
:1002E0000E94AD0DE9CF83E0E81218C0640C751CC4
:1002F0006414750409F47ECFF20161912F01062E7A
:10030000000C770BF1E0A80186E393E0FF1203C035
:100310000E94500DEDCF0E94560DEACF84E0E81206
:1003200015C091E0691A710808F464CFF201619177
:1003300071912F01F1E0A80186E393E0FF1203C061
:100340000E94500DEECF0E94560DEBCF85E0E812D3
:1003500017C091E0691A710808F44CCFF20141917D
:100360005191619171912F01F1E0980186E393E041
:10037000FF1203C00E940B0DECCF0E94660DE9CF67
:1003800086E0E81237CFB12C91E0691A710808F4C1
:1003900031CFF20141915191619171912F01F1E0C1
:1003A000950186E393E0FF1203C00E948D0EECCF0F
:1003B0000E948E0EE9CFF1100BC0269DA001279D53
:1003C000500D369D500D1124B20183ED93E02ECFD8
:1003D00083ED93E00E94B00CE11015C0640C751C15
:1003E0004614570409F406CFF20161912F01F1E0A0
:1003F000A80183ED93E0FF1203C00E94820DF0CFAD
:100400000E94880DEDCF81E0E81215C091E0691AD5
:10041000710808F4EFCEF201619171912F01F1E0C2
:10042000A80183ED93E0FF1203C00E94980DEECF68
:100430000E949D0DEBCF82E0E81217C091E0691A8F
:10044000710808F4D7CEF2014191519161917191F7
:100450002F01F1E0980183ED93E0FF1203C00E94A9
:10046000760DECCF0E94AD0DE9CF83E0E81218C005
:10047000640C751C6414750409F4BCCEF20161911E
:100480002F01062E000C770BF1E0A80183ED93E01D
:10049000FF1203C00E94500DEDCF0E94560DEACF0F
:1004A00084E0E81215C091E0691A710808F4A2CE40
:1004B000F201619171912F01F1E0A80183ED93E0C8
:1004C000FF1203C00E94500DEECF0E94560DEBCFDD
:1004D00085E0E81217C091E0691A710808F48ACE25
:1004E000F20141915191619171912F01F1E09801D7
:1004F00083ED93E0FF1203C00E940B0DECCF0E942E
:10050000660DE9CF86E0E81275CEB12C91E0691A4C
:10051000710808F46FCEF20141915191619171918E
:100520002F01F1E0FF1213C0C11006C0950183ED49
:1005300093E00E948D0EEACFCB01BA016FD4AB01DC
:10054000BC01980183ED93E00E940B0DDFCFC11039
:1005500006C0950183ED93E00E948E0ED7CFCB01AC
:10056000BA015CD4AB01BC01980183ED93E00E9419
:10057000660DCCCFF1100BC0269DA001279D500D1C
:10058000369D500D1124B20180E794E04FCE80E7F4
:1005900094E00E94B00CE11015C0640C751C461468
:1005A000570409F427CEF20161912F01F1E0A8016F
:1005B00080E794E0FF1203C00E94820DF0CF0E94FA
:1005C000880DEDCF81E0E81215C091E0691A71083D
:1005D00008F410CEF201619171912F01F1E0A801B0
:1005E00080E794E0FF1203C00E94980DEECF0E94B6
:1005F0009D0DEBCF82E0E81217C091E0691A7108F7
:1006000008F4F8CDF20141915191619171912F015E
:10061000F1E0980180E794E0FF1203C00E94760D9C
:10062000ECCF0E94AD0DE9CF83E0E81218C0640C56
:10063000751C6414750409F4DDCDF20161912F017C
:10064000062E000C770BF1E0A80180E794E0FF1282
:1006500003C00E94500DEDCF0E94560DEACF84E0FA
:10066000E81215C091E0691A710808F4C3CDF201CF
:10067000619171912F01F1E0A80180E794E0FF12F0
:1006800003C00E94500DEECF0E94560DEBCF85E0C7
:10069000E81217C091E0691A710808F4ABCDF201B5
:1006A00041915191619171912F01F1E0980180E7A1
:1006B00094E0FF1203C00E940B0DECCF0E94660D68
:1006C000E9CF86E0E81296CDB12C91E0691A710865
:1006D00008F490CDF20141915191619171912F01F6
:1006E000F1E0FF1213C0C11006C0950180E794E04D
:1006F0000E948D0EEACFCB01BA0190D3AB01BC01B1
:10070000980180E794E00E940B0DDFCFC11006C076
:10071000950180E794E00E948E0ED7CFCB01BA01FD
:100720007DD3AB01BC01980180E794E00E94660D87
:10073000CCCFF1100BC0269DA001279D500D369DFA
:10074000500D1124B2018DE095E070CD8DE095E063
:100750000E94B00CE11015C0640C751C6414750483
:1007600009F448CDF20161912F01F1E0A8018DE07B
:1007700095E0FF1203C00E94820DF0CF0E94880D09
:10078000EDCF81E0E81215C091E0691A710808F414
:1007900031CDF201619171912F01F1E0A8018DE05D
:1007A00095E0FF1203C00E94980DEECF0E949D0DB0
:1007B000EBCF82E0E81217C091E0691A710808F4E3
:1007C00019CDF20141915191619171912F01F1E0A7
:1007D00098018DE095E0FF1203C00E94760DECCFEA
:1007E0000E94AD0DE9CF83E0E81218C0640C751CBF
:1007F0006414750409F4FECCF20161912F01062EF8
:10080000000C770BF1E0A8018DE095E0FF1203C02A
:100810000E94500DEDCF0E94560DEACF84E0E81201
:1008200015C091E0691A710808F4E4CCF2016191F5
:1008300071912F01F1E0A8018DE095E0FF1203C056
:100840000E94500DEECF0E94560DEBCF85E0E812CE
:1008500017C091E0691A710808F4CCCCF2014191FB
:100860005191619171912F01F1E098018DE095E036
:10087000FF1203C00E940B0DECCF0E94660DE9CF62
:1008800086E0E812B7CCB12C91E0691A710808F43F
:10089000B1CCF20141915191619171912F01F1E03F
:1008A000FF1213C0C11006C095018DE095E00E94B3
:1008B0008D0EEACFCB01BA01B1D2AB01BC019801D8
:1008C0008DE095E00E940B0DDFCFC11006C09501B1
:1008D0008DE095E00E948E0ED7CFCB01BA019ED25B
:1008E000AB01BC0198018DE095E00E94660DCCCF74
:1008F000CF92DF92EF92FF926B017C019F7720E015
:1009000030E040E859E586D287FF26C020E030E09D
:1009100040E05FE3C701B6017AD387FD0CC020E059
:1009200030E040E05FE3C701B601FDD1FF90EF90FA
:10093000DF90CF90A4C220E030E040E05FEBC70141
:10094000B60165D318167CF420E030E0A901C70198
:10095000B60161D36B017C01C701B601FF90EF9036
:10096000DF90CF90089520E030E040E05FE3C701E2
:10097000B601D8D1FF90EF90DF90CF9038C28F9220
:100980009F92AF92BF92CF92DF92EF92FF920F931E
:100990001F93CF93DF93CDB7DEB7EE970FB6F894E2
:1009A000DEBF0FBECDBF4FE150E064E072E0CE018C
:1009B00080960E94720FFE01B096DE011196CE0164
:1009C000CF96BA2E1B2F21912D93E817F907D9F74F
:1009D000C0900002D0900102E0900202F090030269
:1009E000A70196016091D0057091D1058091D20543
:1009F0009091D3050FD2882341F0C092D005D092B8
:100A0000D105E092D205F092D3056091E405709192
:100A1000E5058091E6059091E70505D2C62E609127
:100A2000DC057091DD058091DE059091DF05FBD13D
:100A3000E62E6091E0057091E1058091E2059091CC
:100A4000E305F1D1062F6091D8057091D905809109
:100A5000DA059091DB05E7D1F62E6091D40570910F
:100A6000D5058091D6059091D705DDD1862F912CA3
:100A7000812C92E0A92E2F2D4FE150E06B2D712F8C
:100A800084DBEE960FB6F894DEBF0FBECDBFDF91CC
:100A9000CF911F910F91FF90EF90DF90CF90BF907B
:100AA000AF909F908F900895CF92DF92EF92FF9238
:100AB0001092290310922803EAEAF5E081E4DF01AD
:100AC0001D928A95E9F781E08093EA058091000202
:100AD00090910102A0910202B09103028093D0058F
:100AE0009093D105A093D205B093D30581E090E017
:100AF000A0E0B0E08093AB059093AC05A093AD056A
:100B0000B093AE0580E090E0A0E8BFE38093D40509
:100B10009093D505A093D605B093D7058093D805BB
:100B20009093D905A093DA05B093DB0580E090E0BF
:100B3000A0E0B0E48093E0059093E105A093E20586
:100B4000B093E30560E070E080E89FE3D1DE6B01E5
:100B50007C0120E030E040E853E45CD187FF15C021
:100B600020E030E0A901C701B60151D287FD0FC0D6
:100B7000C701B60158D1862FEADA81E08093AF052C
:100B8000FF90EF90DF90CF9008958FEFF5CF80E04A
:100B9000F3CF8091AA05811103C081E08093AA055B
:100BA000089540E855E260E070E090E080E000C029
:100BB0008130910571F01CF4892B39F00895823051
:100BC000910559F0039769F0089526E086E393E0D4
:100BD000FBC326E083ED93E0FBCF26E080E794E0C3
:100BE000F7CF26E08DE095E0F3CF1F920F920FB67E
:100BF0000F9211240BB60F922F933F934F935F9355
:100C00006F937F938F939F93AF93BF93EF93FF93D4
:100C10008BEC93EF909325018093240134D0FF91C6
:100C2000EF91BF91AF919F918F917F916F915F9164
:100C30004F913F912F910F900BBE0F900FBE0F90D1
:100C40001F9018958BEC93EF9093250180932401CE
:100C5000A3E7B0E08C918E7F8C93E0E2F1E080819D
:100C60008C7F8083E1E2F1E08081877E80838081D8
:100C70008560808380818D7F80838C9181608C935F
:100C8000089581E0089580912A0391E0980F909350
:100C90002A03882349F021E030E030932C0320938D
:100CA0002B0380932A030895789469DEF894809149
:100CB0002A038150F6CFCF93DF931092EC05109268
:100CC000EB0556D26EDFC0910403D0910503198263
:100CD0001882EADEF894B6DF81E028813981232B7F
:100CE00009F080E08093EB05789478948091EB058F
:100CF000811107C04EDFF89490E080E0DF91CF9142
:100D0000089581E028813981232B09F480E08093C4
:100D1000EC059091EC0581E0911180E08093EB056A
:100D2000B0DFE4CF5058BB27AA270ED01FC110D187
:100D300030F015D120F031F49F3F11F41EF405C1BD
:100D40000EF4E095E7FBD2C0E92F21D180F3BA176A
:100D5000620773078407950718F071F49EF550C178
:100D60000EF4E0950B2EBA2FA02D0B01B9019001C6
:100D70000C01CA01A0011124FF27591B99F0593F0A
:100D800050F4503E68F11A16F040A22F232F342F52
:100D90004427585FF3CF469537952795A795F040A0
:100DA0005395C9F77EF41F16BA0B620B730B840BB5
:100DB000BAF09150A1F0FF0FBB1F661F771F881F6D
:100DC000C2F70EC0BA0F621F731F841F48F48795C5
:100DD00077956795B795F7959E3F08F0B3CF9395B4
:100DE000880F08F09927EE0F979587950895F1D011
:100DF00080F09F3740F491110EF403C160E070E081
:100E000080E89FE3089526F01B16611D711D811D6A
:100E100073C08DC047D008F481E0089504D0689471
:100E2000B111EFC00895BBD088F09F5790F0B92F53
:100E30009927B751A0F0D1F0660F771F881F991F2F
:100E40001AF0BA95C9F712C0B13081F0D9D0B1E02B
:100E50000895D6C0672F782F8827B85F39F0B93F3B
:100E6000CCF3869577956795B395D9F73EF4909531
:100E70008095709561957F4F8F4F9F4F0895A9D0B2
:100E800080F09F3740F491110EF0BBC060E070E03D
:100E900080E89FEB089526F41B16611D711D811DCE
:100EA0002BC045C0990F0008550FAA0BE0E8FEEFD4
:100EB00016161706E807F907C0F012161306E4071E
:100EC000F50798F0621B730B840B950B39F40A2617
:100ED00061F0232B242B252B21F408950A2609F4F5
:100EE000A140A6958FEF811D811D089597F99F67F9
:100EF00080E870E060E00895882371F4772321F0A2
:100F00009850872B762F07C0662311F499270DC0C0
:100F10009051862B70E060E02AF09A95660F771F5B
:100F2000881FDAF7880F9695879597F908959F3F60
:100F300031F0915020F4879577956795B795880F94
:100F4000911D9695879597F908959FEF80EC0895E8
:100F500000240A9416161706180609060895002498
:100F60000A9412161306140605060895092E039412
:100F7000000C11F4882352F0BB0F40F4BF2B11F486
:100F800060FF04C06F5F7F4F8F4F9F4F089557FDE5
:100F90009058440F551F59F05F3F71F04795880FE7
:100FA00097FB991F61F09F3F79F08795089512167E
:100FB00013061406551FF2CF4695F1DF08C016162A
:100FC00017061806991FF1CF8695710561050894DB
:100FD0000895E5DFA0F0BEE7B91788F4BB279F3876
:100FE00060F41616B11D672F782F8827985FF7CF0A
:100FF000869577956795B11D93959639C8F30895B1
:10100000E894BB2766277727CB0197F908954ADF35
:1010100008F48FEF08950BD0A9CF9ADF28F09FDF57
:1010200018F0952309F062CF90CF1124EACFAFDFFB
:10103000A0F3959FD1F3950F50E0551F629FF001EB
:10104000729FBB27F00DB11D639FAA27F00DB11D44
:10105000AA1F649F6627B00DA11D661F829F2227CD
:10106000B00DA11D621F739FB00DA11D621F839F54
:10107000A00D611D221F749F3327A00D611D231F2A
:10108000849F600D211D822F762F6A2F11249F5778
:1010900050408AF0E1F088234AF0EE0FFF1FBB1F9B
:1010A000661F771F881F91505040A9F79E3F51053A
:1010B00070F01CCFA6CF5F3FECF3983EDCF3869533
:1010C00077956795B795F795E7959F5FC1F7FE2BE5
:1010D000880F911D9695879597F908951F920F9205
:1010E0000FB60F9211242F933F938F939F93AF933B
:1010F000BF9380912E0390912F03A0913003B09164
:10110000310330912D0323E0230F2D3758F501963D
:10111000A11DB11D20932D0380932E0390932F03C7
:10112000A0933003B0933103809132039091330345
:10113000A0913403B09135030196A11DB11D809398
:10114000320390933303A0933403B0933503BF91DC
:10115000AF919F918F913F912F910F900FBE0F9064
:101160001F90189526E8230F0296A11DB11DD2CF1E
:10117000789484B5826084BD84B5816084BD85B572
:10118000826085BD85B5816085BDEEE6F0E0808139
:1011900081608083E1E8F0E010828081826080835A
:1011A000808181608083E0E8F0E0808181608083DD
:1011B000E1EBF0E0808184608083E0EBF0E080810F
:1011C00081608083E1E9F0E08081826080838081BA
:1011D00081608083E0E9F0E0808181608083E1EAE2
:1011E000F0E0808182608083808181608083E0EA9A
:1011F000F0E0808181608083E1E2F1E080818260C3
:101200008083808181608083E0E2F1E08081816081
:101210008083EAE7F0E0808184608083808182605F
:101220008083808181608083808180688083109248
:10123000C1000895FC01918D228D892F90E0805C82
:101240009F4F821B91098F7399270895FC01918DFF
:10125000828D981731F0828DE80FF11D858D90E019
:1012600008958FEF9FEF0895FC01918D828D98175F
:1012700061F0A28DAE0FBF2FB11D5D968C91928D46
:101280009F5F9F73928F90E008958FEF9FEF089577
:10129000FC01538D448D252F30E0842F90E0821B7C
:1012A000930B541710F0CF96089501970895FC0101
:1012B000A48DA80FB92FB11DA35ABF4F2C91848DB7
:1012C00090E001968F739927848FA689B7892C9314
:1012D000A089B1898C91837080648C93938D848D67
:1012E000981306C00288F389E02D80818F7D80836A
:1012F0000895CF93DF93EC01888D8823B1F0AA89FC
:10130000BB89E889F9898C9185FD03C0808186FDC0
:101310000CC00FB607FCF7CF8C9185FFF2CF808110
:1013200085FFEDCFCE01C3DFEACFDF91CF910895E6
:10133000EF92FF920F931F93CF93DF93EC0181E025
:10134000888F9B8D8C8D98131AC0E889F9898081CC
:1013500085FF15C09FB7F894EE89FF896083E889FF
:10136000F98980818370806480839FBF81E090E0F1
:10137000DF91CF911F910F91FF90EF900895F62E7E
:101380000B8D10E00F5F1F4F0F731127E02E8C8D18
:101390008E110BC00FB607FCFACFE889F98980815E
:1013A00085FFF5CFCE0183DFF2CFEB8DEC0FFD2F64
:1013B000F11DE35AFF4FF0829FB7F8940B8FEA8933
:1013C000FB8980818062D0CFCF92DF92EF92FF9233
:1013D0001F93CF93DF93EC016A017B01122FE88901
:1013E000F98982E08083C11481EED806E104F1041A
:1013F00099F060E079E08DE390E0A70196019ED43A
:10140000215031094109510956954795379527953E
:10141000211580E1380790F0E889F989108260E8A9
:1014200074E88EE190E0A701960188D4215031093B
:10143000410951095695479537952795EC85FD85C6
:101440003083EE85FF852083188EEC89FD8910831B
:10145000EA89FB89808180618083EA89FB898081B8
:1014600088608083EA89FB89808180688083EA893B
:10147000FB8980818F7D8083DF91CF911F91FF90C9
:10148000EF90DF90CF9008951F920F920FB60F92BA
:1014900011240BB60F922F938F939F93EF93FF938B
:1014A000E0914603F09147038081E0914C03F09175
:1014B0004D0382FD1DC0908180914F038F5F8F731C
:1014C00020915003821741F0E0914F03F0E0EA5C75
:1014D000FC4F958F80934F03FF91EF919F918F91D8
:1014E0002F910F900BBE0F900FBE0F901F9018956D
:1014F0008081F2CF1F920F920FB60F9211240BB67C
:101500000F922F933F934F935F936F937F938F939C
:101510009F93AF93BF93EF93FF9386E393E0C7DE70
:10152000FF91EF91BF91AF919F918F917F916F91BB
:101530005F914F913F912F910F900BBE0F900FBE77
:101540000F901F901895E6E3F3E01382128288EE65
:1015500093E0A0E0B0E084839583A683B7838AE01C
:1015600093E09183808385EC90E09587848784EC79
:1015700090E09787868780EC90E0918B808B81EC60
:1015800090E0938B828B82EC90E0958B848B86EC41
:1015900090E0978B868B118E128E138E148E089589
:1015A0001F920F920FB60F9211240BB60F922F932A
:1015B0008F939F93EF93FF93E091E303F091E40304
:1015C0008081E091E903F091EA0382FD1DC09081E2
:1015D0008091EC038F5F8F732091ED03821741F0B0
:1015E000E091EC03F0E0ED52FC4F958F8093EC031B
:1015F000FF91EF919F918F912F910F900BBE0F90C4
:101600000FBE0F901F9018958081F2CF1F920F92FE
:101610000FB60F9211240BB60F922F933F934F9357
:101620005F936F937F938F939F93AF93BF93EF934A
:10163000FF9383ED93E03BDEFF91EF91BF91AF917C
:101640009F918F917F916F915F914F913F912F91DA
:101650000F900BBE0F900FBE0F901F901895E3EDEB
:10166000F3E01382128288EE93E0A0E0B0E084837E
:101670009583A683B7838AE093E0918380838DEC82
:1016800090E0958784878CEC90E09787868788EC3C
:1016900090E0918B808B89EC90E0938B828B8AEC2D
:1016A00090E0958B848B8EEC90E0978B868B118EDF
:1016B000128E138E148E08951F920F920FB60F92F2
:1016C00011240BB60F922F938F939F93EF93FF9359
:1016D000E0918004F09181048081E0918604F09192
:1016E000870482FD1DC09081809189048F5F8F7374
:1016F00020918A04821741F0E0918904F0E0E059DA
:10170000FB4F958F80938904FF91EF919F918F916B
:101710002F910F900BBE0F900FBE0F901F9018953A
:101720008081F2CF1F920F920FB60F9211240BB649
:101730000F922F933F934F935F936F937F938F936A
:101740009F93AF93BF93EF93FF9380E794E0AFDD58
:10175000FF91EF91BF91AF919F918F917F916F9189
:101760005F914F913F912F910F900BBE0F900FBE45
:101770000F901F901895E0E7F4E01382128288EE34
:1017800093E0A0E0B0E084839583A683B7838AE0EA
:1017900093E09183808385ED90E09587848784ED45
:1017A00090E09787868780ED90E0918B808B81ED2C
:1017B00090E0938B828B82ED90E0958B848B86ED0D
:1017C00090E0978B868B118E128E138E148E089557
:1017D0001F920F920FB60F9211240BB60F922F93F8
:1017E0008F939F93EF93FF93E0911D05F0911E055A
:1017F0008081E0912305F091240582FD1DC0908138
:10180000809126058F5F8F7320912705821741F005
:10181000E0912605F0E0E35FFA4F958F809326056F
:10182000FF91EF919F918F912F910F900BBE0F9091
:101830000FBE0F901F9018958081F2CF1F920F92CC
:101840000FB60F9211240BB60F922F933F934F9325
:101850005F936F937F938F939F93AF93BF93EF9318
:10186000FF938DE095E023DDFF91EF91BF91AF9164
:101870009F918F917F916F915F914F913F912F91A8
:101880000F900BBE0F900FBE0F901F901895EDE0BC
:10189000F5E01382128288EE93E0A0E0B0E084834A
:1018A0009583A683B7838AE093E09183808385E361
:1018B00091E09587848784E391E09787868780E32A
:1018C00091E0918B808B81E391E0938B828B82E31B
:1018D00091E0958B848B86E391E0978B868B118EBC
:1018E000128E138E148E0895AF92BF92CF92DF9214
:1018F000EF92FF920F931F93CF93DF936C017B01C5
:101900008B01040F151FEB015E01AE18BF08C01755
:10191000D10759F06991D601ED91FC910190F081C8
:10192000E02DC6011995892B79F7C501DF91CF917B
:101930001F910F91FF90EF90DF90CF90BF90AF90ED
:101940000895FB0101900020E9F73197AF01461B94
:10195000570BDC01ED91FC910280F381E02D19948D
:101960006115710509F0EDCF90E080E00895DC018C
:10197000ED91FC910190F081E02D199468E173E004
:10198000E0CF8F929F92AF92BF92EF92FF920F9310
:101990001F93CF93DF93CDB7DEB7A1970FB6F8941F
:1019A000DEBF0FBECDBF7C01FA01CB0119A22230F0
:1019B00008F42AE08E010F5D1F4F822E912CB12C6E
:1019C000A12CBF01A5019401B9D1F901CA016A3066
:1019D00004F5605DD8016E938D01232B242B252BFC
:1019E00081F790E080E0109719F0BD01C701A9DFF1
:1019F000A1960FB6F894DEBF0FBECDBFDF91CF9199
:101A00001F910F91FF90EF90BF90AF909F908F909C
:101A10000895695CDFCFCF92DF92EF92FF920F9330
:101A20001F93CF93DF932115310581F4DC01ED91F4
:101A3000FC910190F081E02D642FDF91CF911F91F7
:101A40000F91FF90EF90DF90CF9019942A303105DD
:101A5000F1F42AE077FF1BC06A017B01EC016DE223
:101A600086DF8C0144275527BA014C195D096E09A0
:101A70007F092AE0CE0185DF800F911FDF91CF9192
:101A80001F910F91FF90EF90DF90CF900895DF911D
:101A9000CF911F910F91FF90EF90DF90CF9071CF7A
:101AA0009A01AB01770F660B770BB5CF0F931F939E
:101AB000CF93DF93EC01F4DF8C01CE015FDF800F69
:101AC000911FDF91CF911F910F9108950F931F9355
:101AD000CF93DF93EC019FDF8C01CE014FDF800FAE
:101AE000911FDF91CF911F910F910895211531051D
:101AF00041F4DC01ED91FC910190F081E02D642F27
:101B000019943FCF9A01462F50E070E060E0EECF8D
:101B10000F931F93CF93DF93EC01F4DF8C01CE0181
:101B20002DDF800F911FDF91CF911F910F910895AD
:101B30009A01AB0170E060E0D9CF0F931F93CF9370
:101B4000DF93EC01F5DF8C01CE0118DF800F911FD0
:101B5000DF91CF911F910F9108950F931F93CF9312
:101B6000DF93EC01C3DF8C01CE0108DF800F911FF2
:101B7000DF91CF911F910F9108952F923F924F9235
:101B80005F926F927F928F929F92AF92BF92CF920D
:101B9000DF92EF92FF921F93CF93DF93EC016A01E4
:101BA0007B01722EAB019601CB01B60196D16BE1A0
:101BB00073E0811123C046015701E894B7F82FEF75
:101BC0003FEF4FE75FE7C501B40187D181110BC03B
:101BD0002FEF3FEF4FE75FE7C501B4011BD96FE17E
:101BE00073E018165CF02FEF3FEF4FE75FE4C7019B
:101BF000B6010DDA1816ACF463E273E0CE01DF91A2
:101C0000CF911F91FF90EF90DF90CF90BF90AF905A
:101C10009F908F907F906F905F904F903F902F900C
:101C200090CE2FEF3FEF4FE75FECC701B601F2D840
:101C300087FDE2CF20E030E0A901C701B601EAD874
:101C4000312C212C87FF08C06DE2CE0190DE1C01F3
:101C5000F7FAF094F7F8F09410E060E070E080E0BC
:101C60009FE3711639F020E030E040E251E490D07B
:101C70001F5FF7CFA701960156D82B013C01D3D89F
:101C80004B015C012AE0BC01A401CE017ADE7C019B
:101C9000E20CF31C112371F1C501B401E1D09B01E9
:101CA000AC01C301B2013ED84B015C016EE2CE0132
:101CB0005EDEE80EF91E1150E8F020E030E040E270
:101CC00051E4C501B401A7D92B013C01ACD84B01AB
:101CD0004AE050E0CE012CDFE80EF91EB40190E09E
:101CE00080E0BED09B01AC01C301B2011BD84B0107
:101CF0005C01E1CFC701DF91CF911F91FF90EF9081
:101D0000DF90CF90BF90AF909F908F907F906F901B
:101D10005F904F903F902F9008952FCF0F931F9378
:101D2000CF93DF93EC0129DF8C01CE0127DE800FFA
:101D3000911FDF91CF911F910F910895A1E21A2E6B
:101D4000AA1BBB1BFD010DC0AA1FBB1FEE1FFF1F5F
:101D5000A217B307E407F50720F0A21BB30BE40BAF
:101D6000F50B661F771F881F991F1A9469F76095F6
:101D70007095809590959B01AC01BD01CF010895B0
:101D8000EE0FFF1F881F8BBF0790F691E02D19946F
:101D90000CD0ECC8E4D840F0DBD830F021F45F3F41
:101DA00019F0A4C851112DC9D0C8F1D898F39923BE
:101DB000C9F35523B1F3951B550BBB27AA2762170F
:101DC0007307840738F09F5F5F4F220F331F441F54
:101DD000AA1FA9F333D00E2E3AF0E0E830D091508C
:101DE0005040E695001CCAF729D0FE2F27D0660F79
:101DF000771F881FBB1F261737074807AB07B0E8B8
:101E000009F0BB0B802DBF01FF2793585F4F2AF0CD
:101E10009E3F510568F06AC8F4C85F3FECF3983EF6
:101E2000DCF3869577956795B795F7959F5FC9F72A
:101E3000880F911D9695879597F90895E1E0660FB3
:101E4000771F881FBB1F621773078407BA0720F02C
:101E5000621B730B840BBA0BEE1F88F7E095089595
:101E6000E89409C097FB3EF4909580957095619534
:101E70007F4F8F4F9F4F9923A9F0F92F96E9BB27EA
:101E80009395F695879577956795B795F111F8CF66
:101E9000FAF4BB0F11F460FF1BC06F5F7F4F8F4FD1
:101EA0009F4F16C0882311F096E911C0772321F0C7
:101EB0009EE8872F762F05C0662371F096E8862F5F
:101EC00070E060E02AF09A95660F771F881FDAF7B6
:101ED000880F9695879597F908950E945207880B69
:101EE000990B0895FB01DC014150504048F00190EE
:101EF0000D920020C9F701C01D9241505040E0F7FB
:061F00000895F894FFCFE4
:101F06000000000048656C6C6F21000000000000B6
:101F160000000000000000000000000000000000BB
:101F260000000000000000000000000000000000AB
:101F3600000000000000000000000000000000009B
:101F4600000000000000000000000000000000008B
:101F5600000000000000000000000000000000007B
:101F6600000000000000000000000000000000006B
:101F7600000000000000000000000000000000005B
:101F8600000000000000000000000000000000004B
:101F9600000000000000000000000000000000003B
:101FA600000000000000000000000000000000002B
:101FB600000000000000000000000000000000001B
:101FC600000000000000000000000000000000000B
:101FD60000000000000000000000000000000000FB
:101FE60000000000000000000000000000000000EB
:101FF60000000000000000000000000000000000DB
:10200600000000002803000000009809740C48092D
:1020160079091A09340926090D0A006E616E0069EC
:082026006E66006F7666000093
:00000001FF
